:020000020000FC
:0200000033C00B
:100068000FEF0DBF08E00EBF0FEF0AB900E004B9AB
:100078000FEF05B9222729D0189B05D0199B0FD05F
:100088001A9B19D0F9CF2FD0189B01C00895293099
:1000980011F023951AD0189BFECF25D0089523D0B0
:1000A800199B01C00895203011F02A950ED0199B94
:1000B800FECF19D0089517D01A9B01C008952227A2
:1000C80004D01A9BFECF0FD008950F93EF93FF93A0
:1000D800E4E0F1E00027E20FF01F04910BB9FF9173
:1000E800EF910F9108955F936F9358E268EC6A95CA
:1000F800F1F75A95D9F76F915F9108953F065B4FD5
:06010800666D7D077F6FAC
:00000001FF
